:100000003FC0CFC1F5C157C056C055C054C053C042
:1000100052C015C250C04FC04EC04DC04CC04BC0A6
:100020004AC049C048C000000000000000000004B1
:1000300005070000000000000000000000010204AD
:10004000081020408001020408102001020408105A
:100050002040804004040404040404040202020258
:10006000020203030303030302020300000000383B
:10007000003500320000000000370034003100007D
:1000800011241FBECFE5D4E0DEBFCDBF10E0A0E657
:10009000B0E0E8EFF6E002C005900D92A038B1079D
:1000A000D9F720E0A0E8B0E001C01D92A23AB20763
:1000B000E1F702D31FC3A4CF8091950090919600E1
:1000C000A0919700B09198000196A11DB11D809359
:1000D000950090939600A0939700B0939800089590
:1000E000CF93DF9361E08DE07DD261E08CE07AD246
:1000F00061E08BE077D261E08AE074D2CAE6D0E0BA
:100100008881229661E06ED280E0CA37D807C1F7B5
:1001100061E088E067D261E089E064D260E082E07B
:1001200061D260E083E05ED242E050E06CE570E0D6
:1001300080E0DF91CF9116C1EF92FF920F931F9352
:10014000CF93DF930AE610E0D0E0C0E0E82EF12C78
:10015000F80180810E5F1F4F97010C2E02C035956C
:1001600027950A94E2F761E020FF60E077D22196BC
:10017000C830D10569F7DF91CF911F910F91FF90A2
:10018000EF900895CF93DF93EC0180918800813048
:10019000E9F038F0823069F18330F1F1DF91CF91ED
:1001A000089561E08AE05AD2CE0168EE73E08ED203
:1001B000CB016AE070E08AD2FC01E05AFF4F8081F7
:1001C000BBDF60E08DE0DF91CF9148C261E08DE060
:1001D00045D2CE0164E670E079D2CB016AE070E0EE
:1001E00075D2FC01E05AFF4F8081A6DF60E08CE011
:1001F000EACF61E08CE032D22AE030E0CE01B901F2
:1002000065D2CB01B90162D2FC01E05AFF4F808177
:1002100093DF60E08BE0D7CF61E08BE01FD2CE01AF
:100220006AE070E053D2FC01E05AFF4F808184DF26
:1002300060E08AE0C8CFCF92DF92EF92FF920F93F7
:100240001F9347D16B017C018091840090918500C0
:10025000A0918600B091870097018601081B190BB9
:100260002A0B3B0BD901C8010297A105B105A8F0E3
:10027000C0928400D0928500E0928600F0928700C0
:10028000809188008F5F843008F068C08093880078
:100290008091890090918A0075DF80918000909113
:1002A0008100A0918200B0918300A7019601281BD4
:1002B000390B4A0B5B0BDA01C901883E9340A1055B
:1002C000B105C0F1C0928000D0928100E09282001E
:1002D000F09283008091950090919600A0919700F4
:1002E000B091980080938D0090938E00A0938F0022
:1002F000B0939000409191005091920060919300D2
:10030000709194008C019D01041B150B260B370B7B
:10031000B901A8014093890050938A0060938B0033
:1003200070938C008093910090939200A09393001F
:10033000B09394008EE0F9D097FD0396BC017595BB
:1003400067957595679589E005D161E088E01F9113
:100350000F91FF90EF90DF90CF9080C110928800B6
:1003600097CF0895823088F4E82FF0E0EE0FFF1F5A
:10037000E658FF4F71836083813041F085B78C7FF1
:10038000482B45BF8BB780648BBF089585B7837FAB
:10039000440F551F440F551F482B45BF8BB780682E
:1003A000F3CF1F920F920FB60F9211242F933F930A
:1003B0004F935F936F937F938F939F93AF93BF936D
:1003C000EF93FF93E0917A00F0917B000995FF9104
:1003D000EF91BF91AF919F918F917F916F915F91BD
:1003E0004F913F912F910F900FBE0F901F90189536
:1003F0001F920F920FB60F9211242F933F934F939A
:100400005F936F937F938F939F93AF93BF93EF937C
:10041000FF93E0917C00F0917D000995FF91EF91B1
:10042000BF91AF919F918F917F916F915F914F910C
:100430003F912F910F900FBE0F901F9018951F9214
:100440000F920FB60F9211242F933F938F939F9388
:10045000AF93BF9380919A0090919B00A0919C00D4
:10046000B0919D003091990026E0230F2D3758F56B
:100470000296A11DB11D2093990080939A0090933C
:100480009B00A0939C00B0939D0080919E00909152
:100490009F00A091A000B091A1000196A11DB11DE7
:1004A00080939E0090939F00A093A000B093A10022
:1004B000BF91AF919F918F913F912F910F900FBE60
:1004C0000F901F90189529E8230F0396A11DB11DC9
:1004D000D2CF2FB7F89460919A0070919B008091D1
:1004E0009C0090919D002FBF0895789483B78260FF
:1004F00083BF83B7816083BF89B7816089BF1EBC1A
:100500008EB582608EBD8EB581608EBD8FB58160E7
:100510008FBD85B5846085BD85B5806485BD329A03
:10052000319A3098379A1AB80895883020F08D3073
:1005300008F48DE08E5020917E0090E4299F900178
:1005400011248770822B87B9369A3699FECF84B1F1
:1005500095B108951F93CF93DF93182FEB0161E0BE
:1005600041D0209731F460E0812FDF91CF911F912E
:1005700075C0CF3FD10511F461E0F6CFE12FF0E077
:10058000EA5DFF4FE491E53069F0E73089F0E4304F
:10059000A1F48FB580688FBDDBBDCABDDF91CF915F
:1005A0001F9108958FB580628FBDD9BDC8BDF6CFAC
:1005B00085B5806285BDC3BDF1CFC038D105E4F6F5
:1005C000D2CF853041F0873049F0843051F48FB577
:1005D0008F778FBD08958FB58F7DFBCF85B58F7DCC
:1005E00085BD0895CF93DF9390E0FC01E35CFF4F5E
:1005F00024918C5A9F4FFC0184918823C9F090E08C
:10060000880F991FFC01EB58FF4FA591B491FC0195
:10061000E559FF4FC591D49161110DC09FB7F89472
:100620008C91209582238C938881282328839FBFD7
:10063000DF91CF910895623051F49FB7F8943C91C7
:10064000822F809583238C93E8812E2BEFCF8FB759
:10065000F894EC912E2B2C938FBFEACF1F93CF935E
:10066000DF93282F30E0F901EA5DFF4F8491F90113
:10067000E35CFF4FD491F901EC5AFF4FC491CC23B6
:10068000A1F0162F81119DDFEC2FF0E0EE0FFF1F80
:10069000E559FF4FA591B4918FB7F894EC911111E2
:1006A00008C0D095DE23DC938FBFDF91CF911F91DF
:1006B0000895DE2BF8CF089518DFFDDF11DDC0E0CF
:1006C000D0E0B9DD2097E9F39BDCFBCFAA1BBB1B75
:1006D00051E107C0AA1FBB1FA617B70710F0A61B42
:1006E000B70B881F991F5A95A9F780959095BC0163
:0806F000CD010895F894FFCF3D
:1006F800C0F9A4B0999282F880900700060005001E
:1007080004000100000013001200B1010000010004
:00000001FF
